:020000040800F2
:100000000050002035120008391000084110000887
:1000100099100008E51000083111000800000000E8
:10002000000000000000000000000000914D0008EA
:100030007D11000800000000014F0008B111000808
:100040007D1200087D1200087D1200087D12000854
:100050007D1200087D1200087D1200087D12000844
:100060007D1200087D1200087D1200087D12000834
:100070007D1200087D1200087D1200087D12000824
:100080007D1200087D1200087D1200087D12000814
:100090007D1200087D1200087D1200087D12000804
:1000A0007D1200087D1200087D1200087D120008F4
:1000B000891100087D1200087D1200087D120008D9
:1000C0007D1200087D1200087D1200087D120008D4
:1000D0007D1200087D1200089D1100087D120008A5
:1000E0007D1200087D1200087D120008000000004B
:1000F0000000000000000000000000000000000000
:0C01000000000000000000005FF808F1A3
:1001100010B5054C237833B9044B13B10448AFF341
:1001200000800123237010BD680000200000000043
:10013000585C000808B5034B1BB103490348AFF3F3
:10014000008008BD000000006C000020585C000822
:10015000034613F8012B002AFBD1181A0138704707
:1001600080B485B000AFF860B9607A60FB68064A79
:100170001A60BB68054A1A607B6880221A6000BF5B
:100180001437BD4680BC704784000020D800002092
:1001900080B400AFBFF34F8F00BF064BDB6803F4A2
:1001A000E0620449044B1343CB60BFF34F8F00BFA1
:1001B00000BFFDE700ED00E00400FA0580B483B065
:1001C00000AF0346FB80084B1B6800225A6200BF49
:1001D000054B1B685A6AFB889A42F9D300BF00BFDF
:1001E0000C37BD4680BC7047D802002080B582B075
:1001F00000AF00233B60264B7B6000224FF48071F0
:10020000244801F0C0FB0220FFF7D8FF01224FF481
:100210008071204801F0B7FB0A20FFF7CFFF0022D2
:100220004FF480711B4801F0AEFB06E07B685A1E5C
:100230007A60002B01D1002326E04FF400511648CC
:1002400001F08AFB0346002BF0D0144B1B68002200
:100250005A620F4B7B6006E07B685A1E7A60002B67
:1002600001D1002310E04FF400510B4801F074FB62
:100270000346012BF0D0094B1B685B6A3B603B686F
:10028000074AA2FB03235B0918460837BD4680BD19
:1002900040420F0000080140000C0140D80200203D
:1002A00009CB3D8D80B598B002AF78603960114BB5
:1002B0001B78DBB21946104B1A6807F108003B683F
:1002C00001937B68009313460A460C4905F014F825
:1002D00007F108031846FFF73BFF03469AB207F100
:1002E00008016423064802F057FC00BF5837BD469A
:1002F00080BD00BF000000206C030020705C00087F
:100300002003002080B584B000AF144BDB69134A92
:1003100043F08053D361114BDB6903F08053BB6022
:10032000BB680E4BDB690D4A43F00063D3610B4B96
:10033000DB6903F000637B607B6801F055FB084BD1
:100340005B68FB81FB89DBB2422B01D1422300E0D9
:10035000462318461037BD4680BD00BF001002403E
:10036000006C004080B584B000AF0346FB71124BB7
:10037000DB69114A43F08053D3610F4BDB6903F013
:100380008053FB60FB680C4BDB690B4A43F0006356
:10039000D361094BDB6903F00063BB60BB6801F00C
:1003A00023FB064AFB795360BFF34F8F00BF00BFAA
:1003B0001037BD4680BD00BF00100240006C0040F9
:1003C00080B590B000AF0346FB71FB79413B322B07
:1003D00000F25A8101A252F823F000BF470500083D
:1003E000DF0400088906000889060008890600085D
:1003F000A904000889060008890600088906000883
:100400008906000889060008890600088906000890
:100410008906000889060008890600088906000880
:10042000890600081505000875050008A3050008E1
:10043000D1050008FF0500082D0600085B0600082E
:100440008906000889060008890600088906000850
:100450008906000889060008890600084705000883
:10046000DF040008890600088906000889060008DC
:10047000A904000889060008890600088906000802
:100480008906000889060008890600088906000810
:100490008906000889060008890600088906000800
:1004A00089060008150500084620FFF75BFF07F1E5
:1004B0000C037849184604F01FFF07F10C03184697
:1004C000FFF746FE03469AB207F10C016423724817
:1004D00002F062FB322000F005FFFFF759FE4220D8
:1004E000FFF740FF07F10C036C49184604F004FFC6
:1004F00007F10C031846FFF72BFE03469AB207F1EB
:100500000C016423644802F047FB322000F0EAFE4D
:10051000FFF73EFE624B1B78DBB21A46614B1B684D
:1005200007F10C00604904F0E7FE07F10C031846E0
:10053000FFF70EFE03469AB207F10C0164235648FA
:1005400002F02AFBA1E0594B01221A7007F10C03BB
:100550005749184604F0D0FE07F10C031846FFF780
:10056000F7FD03469AB207F10C0164234A4802F0F2
:1005700013FB8AE04F4B05221A6007F10C034E492A
:10058000184604F0B9FE07F10C031846FFF7E0FD2A
:1005900003469AB207F10C0164233F4802F0FCFACB
:1005A00073E0444B0A221A6007F10C0343491846D2
:1005B00004F0A2FE07F10C031846FFF7C9FD03463D
:1005C0009AB207F10C016423334802F0E5FA5CE0CB
:1005D000384B0F221A6007F10C033949184604F012
:1005E0008BFE07F10C031846FFF7B2FD03469AB2E3
:1005F00007F10C016423284802F0CEFA45E02D4BA8
:1006000014221A6007F10C032E49184604F074FEF8
:1006100007F10C031846FFF79BFD03469AB207F15A
:100620000C0164231C4802F0B7FA2EE0214B19227A
:100630001A6007F10C032449184604F05DFE07F127
:100640000C031846FFF784FD03469AB207F10C012C
:100650006423114802F0A0FA17E0164B1E221A601C
:1006600007F10C031949184604F046FE07F10C0384
:100670001846FFF76DFD03469AB207F10C0164239B
:10068000054802F089FA00E000BF00BF4037BD46D0
:1006900080BD00BF945C000820030020A85C000817
:1006A000000000206C030020C05C000888030020CC
:1006B000DC5C000804000020EC5C0008005D000821
:1006C000145D0008285D00083C5D0008505D0008CE
:1006D00080B584B000AF786000F0FAFDF860FFF7F5
:1006E00085FDB8601E4ABB6813601D4AFB685360F5
:1006F0001B4B01221A721B4B1B68BA689A4226D206
:10070000BB68002B23D0184B1B78DBB2002B19D110
:10071000154B01221A7000F0DBFD0346134A1360EB
:10072000134B01221A60134B00221A70124B1B68E4
:10073000002B0CD0104B186800230022002103F07E
:100740009BF904E00A4B1B680133094A13604FF41C
:1007500000510A4801F02FF9642003F059FDBBE76E
:1007600070030020040000207C0300208003002090
:1007700084030020880300208C0300200010014027
:1007800080B586B000AF7860194B1B7ADBB2002BC6
:1007900029D0174B1B687B61154B5B683B61144B81
:1007A00000221A7200F094FDF860FA683B69D31ACF
:1007B000BB60104AFB681360B9687869FFF772FD87
:1007C0000D4B1B78DBB2002B0DD00C4B1B78DBB232
:1007D0001846FFF7F5FD084B00221A700122074961
:1007E000074802F064FA052003F012FDCCE700BFD1
:1007F000700300206C0300206903002068030020C0
:100800002003002080B5A6B002AF78602B4B1B6898
:100810004FF0FF31184603F0D9F90346012BF5D10B
:1008200023E000F055FD0246254B1B68D31AC7F89C
:100830008C30244B1A68244B1B6807F10C00009382
:10084000D7F88C30214904F057FD07F10C03184606
:10085000FFF77EFC03469AB207F10C0164231C48A3
:1008600002F09AF9C82003F0D3FC1A4B1B78DBB2D4
:10087000002B04D0184B1B78DBB2002BD1D0164BC9
:100880001B78DBB2002BC1D007F10C0313491846CB
:1008900004F032FD07F10C031846FFF759FC03463C
:1008A0009AB207F10C016423094802F075F9094B6B
:1008B00000221A70034B00221A60A7E78C03002065
:1008C000800300208403002004000020645D0008F1
:1008D000200300207C03002088030020945D000892
:1008E000B0B58CB000AF254B3C1D1D460FCD0FC4DD
:1008F00095E8070003C422803B1D1846FFF728FC3B
:1009000003469AB2391D64231D4802F045F90122BD
:100910001C491B4802F0CBF900F0DAFCF862FFF743
:1009200065FCB86200F0D4FC78627A6AFB6AD31A7C
:100930003B6200F0CDFC0346134A1360396AB86A83
:10094000FFF7B0FC4FF40051104801F034F8104BA1
:100950001B78DBB2002B0DD00A4B1B78DBB218469C
:10096000FFF72EFD0A4B00221A70012205490448A8
:1009700002F09DF9642000F0B5FCCDE7A45D00080D
:1009800020030020680300206C03002000100140B9
:100990006903002080B483B000AF78607B681B6877
:1009A000054A934202D1054B01221A7000BF0C3751
:1009B000BD4680BC704700BF004400406903002072
:1009C00080B5B0B002AF00F05BFC00F0B7F800F00B
:1009D0006BF900F03FF900F0EDF8494801F0A0FC98
:1009E000484BDB69474A43F08053D361454BDB6991
:1009F00003F08053BB60BB68424BDB69414A43F064
:100A00000063D3613F4BDB6903F000637B607B686D
:100A100000F0EAFF3C4B5B68A7F8B630FFF772FCCA
:100A200003461A46394B1A70B7F8B620374B1B7875
:100A3000DBB207F16400364904F05EFC07F16403A1
:100A40001846FFF785FB03469AB207F16401642359
:100A5000304802F0A1F82D4B1B78DBB21A4607F1A3
:100A600028032D49184604F047FC07F128031846CF
:100A7000FFF76EFB03469AB207F12801642325486D
:100A800002F08AF801222549224802F010F91F4B92
:100A90001B78DBB2422B02D1FFF722FF2EE01B4B6B
:100AA00046221A70002301930323009300234FF47E
:100AB00080721B491B4803F085FA00230193012330
:100AC000009300234FF480721749184803F07AFA14
:100AD00003220021012002F083FF0346144A136021
:100AE000002301930323009300234FF480721149E4
:100AF000114803F067FA03F0AFFB00BF00BFFDE74A
:100B0000D802002000100240006C004000000020CD
:100B1000C05D000820030020E05D0008680300209D
:100B2000F85D0008D1060008045E0008810700088F
:100B30008C030020105E00080508000880B590B006
:100B400000AF07F1180328220021184604F0F6FB35
:100B50003B1D00221A605A609A60DA601A61022313
:100B6000BB610123BB621023FB6200237B6307F19F
:100B70001803184600F044FF0346002B01D000F094
:100B800021F90F237B600023BB600023FB6000235F
:100B90003B6100237B613B1D0021184601F0B2F947
:100BA0000346002B01D000F00DF900BF4037BD46D1
:100BB00080BD000080B586B000AF07F108030022B9
:100BC0001A605A609A60DA603B4600221A605A60E6
:100BD0001E4B1F4A1A601D4B07225A601B4B0022F6
:100BE0009A601A4B4FF6FF72DA60184B00221A61B6
:100BF000164B00225A61154B00229A61134801F0EE
:100C00003FFB0346002B01D000F0DCF84FF480538B
:100C1000BB6007F1080319460C4801F00DFD0346BF
:100C2000002B01D000F0CEF800233B6000237B6056
:100C30003B461946054801F0EFFE0346002B01D064
:100C400000F0C0F800BF1837BD4680BDD8020020B4
:100C5000002C014080B500AF114B124A1A60104BB6
:100C60004FF4E1325A600E4B00229A600C4B002286
:100C7000DA600B4B00221A61094B0C225A61084BB7
:100C800000229A61064B0022DA61054801F034FF28
:100C90000346002B01D000F095F800BF80BD00BFD7
:100CA000200300200044004080B588B000AF07F169
:100CB000100300221A605A609A60DA602F4B9B6919
:100CC0002E4A43F0100393612C4B9B6903F01003F1
:100CD000FB60FB68294B9B69284A43F0040393613E
:100CE000264B9B6903F00403BB60BB68234B9B69E5
:100CF000224A43F008039361204B9B6903F00803E9
:100D00007B607B6800224FF400511D4800F03BFEE1
:100D100000224FF480711B4800F035FE4FF4005361
:100D20003B6101237B610023BB610223FB6107F16F
:100D300010031946124800F08BFC4FF400533B613E
:100D400000237B610023BB6107F1100319460E48A5
:100D500000F07EFC4FF480733B6101237B61002334
:100D6000BB610223FB6107F110031946054800F03F
:100D70006FFC00BF2037BD4680BD00BF00100240A1
:100D80000010014000080140000C014080B582B015
:100D900000AF78607B681B68B3F1804F01D100F031
:100DA00085FA7B681B68B3F1804F06D103F0C6FD5E
:100DB0000346012B01D004F0C7F800BF0837BD4639
:100DC00080BD000080B582B000AF4FF400510748ED
:100DD00000F0F1FD00237B6002E07B6801337B6063
:100DE0007B684CF24F329342F7D9EEE70010014096
:100DF00080B584B000AF184B9B69174A43F00103DC
:100E00009361154B9B6903F00103BB60BB68124BF8
:100E1000DB69114A43F08053D3610F4BDB6903F068
:100E200080537B607B6800220F216FF0010000F08F
:100E300032FB0A4B5B68FB60FB6823F0E063FB60FE
:100E4000FB6843F00073FB60044AFB68536000BF1B
:100E50001037BD4680BD00BF0010024000000140B9
:100E600080B485B000AF78607B681B68094A934204
:100E70000BD1094B9B69084A43F400639361064B0D
:100E80009B6903F40063FB60FB6800BF1437BD4639
:100E900080BC7047002C01400010024080B588B033
:100EA00000AF786007F1100300221A605A609A6060
:100EB000DA607B681B681F4A934237D11E4BDB699F
:100EC0001D4A43F40033D3611B4BDB6903F4003349
:100ED000FB60FB68184B9B69174A43F0040393615E
:100EE000154B9B6903F00403BB60BB6804233B61A3
:100EF00002237B610323FB6107F1100319460F48AE
:100F000000F0A6FB08233B6100237B610023BB614B
:100F100007F110031946094800F09AFB0022062148
:100F2000262000F0B8FA262000F0D1FA00BF2037C2
:100F3000BD4680BD00440040001002400008014052
:100F400080B58EB000AF78600023FB620023BB62E7
:100F5000002387F83330344BDB69334A43F0010315
:100F6000D361314BDB6903F00103FB60FB6807F1E0
:100F7000100207F114031146184601F033F93B6AD9
:100F8000FB62FB6A002B03D101F004F9786304E0F3
:100F900001F000F903465B007B637B6B234AA2FBF5
:100FA00003239B0C013BBB62214B4FF080421A6034
:100FB0001F4B40F2E732DA601D4ABB6A53601C4B9C
:100FC00000221A611A4B00229A60194B00229A6182
:100FD000174801F055F9034687F8333097F8333056
:100FE000002B1BD1124801F0E5F9034687F8333096
:100FF00097F83330002B11D11C2000F068FA7B6881
:101000000F2B08D8002279681C2000F044FA094A06
:101010007B68136002E0012387F8333097F83330A0
:1010200018463837BD4680BD0010024083DE1B43A2
:10103000900300200C00002080B400AF00BFFDE74B
:1010400080B500AF00224FF40051124800F09BFC25
:10105000642000F047F901224FF400510D4800F0E0
:1010600092FC642000F03EF900224FF40051094840
:1010700000F089FC642000F035F901224FF40051A2
:10108000044800F080FC4FF4FA6000F02BF900BF38
:10109000D8E700BF0010014080B582B000AF002348
:1010A0007B6014E000224FF400510D4800F06BFC0F
:1010B000642000F017F901224FF40051084800F0B5
:1010C00062FC642000F00EF97B6801337B607B6872
:1010D000022BE7DD4FF4FA6000F004F9DFE700BF10
:1010E0000010014080B582B000AF00237B6014E0A7
:1010F00000224FF400510D4800F045FC642000F040
:10110000F1F801224FF40051084800F03CFC642043
:1011100000F0E8F87B6801337B607B68032BE7DD38
:101120004FF4FA6000F0DEF8DFE700BF0010014086
:1011300080B582B000AF00237B6014E000224FF442
:1011400000510D4800F01FFC642000F0CBF8012294
:101150004FF40051084800F016FC642000F0C2F87B
:101160007B6801337B607B68042BE7DD4FF4FA601A
:1011700000F0B8F8DFE700BF0010014080B400AF16
:1011800000BFBD4680BC704780B500AF024801F08B
:1011900063F900BF80BD00BF9003002080B500AFA1
:1011A000024801F0A9FD00BF80BD00BF2003002060
:1011B00080B400AF00BFBD4680BC704780B586B02C
:1011C00000AF7860144A154BD31A7B617B693B6191
:1011D000134B1B68002B02D1114B124A1A60104BA3
:1011E0001A687B6813443A699A4207D204F0AEF851
:1011F00003460C221A604FF0FF3309E0084B1B68CE
:10120000FB60074B1A687B681344054A1360FB6850
:1012100018461837BD4680BD00500020000400006D
:10122000D80300208016002080B400AF00BFBD4668
:1012300080BC7047FFF7F8FF0B480C490C4A0023AD
:1012400002E0D458C4500433C4188C42F9D3094A7C
:10125000094C002301E013600432A242FBD304F0E6
:101260007BF8FFF7ADFB704700000020680000200E
:10127000905E0008680000207C160020FEE7000059
:1012800080B500AF084B1B68074A43F0100313609A
:10129000032000F0F5F80020FFF752FEFFF7A8FD4D
:1012A0000023184680BD00BF0020024080B400AF7C
:1012B000054B1B781A46054B1B681344034A136001
:1012C00000BFBD4680BC704710000020DC0300203A
:1012D00080B400AF024B1B681846BD4680BC704707
:1012E000DC03002080B584B000AF7860FFF7F0FF2A
:1012F000B8607B68FB60FB68B3F1FF3F05D00A4B29
:101300001B781A46FB681344FB6000BFFFF7E0FF41
:101310000246BB68D31AFA689A42F7D800BF00BFEA
:101320001037BD4680BD00BF1000002080B485B0DE
:1013300000AF78607B6803F00703FB600C4BDB6851
:10134000BB60BA684FF6FF031340BB60FB681A022C
:10135000BB68134343F0BF6343F40033BB60044AEC
:10136000BB68D36000BF1437BD4680BC704700BF68
:1013700000ED00E080B400AF044BDB681B0A03F013
:1013800007031846BD4680BC704700BF00ED00E073
:1013900080B483B000AF0346FB7197F90730002B90
:1013A0000BDBFB7903F01F02064997F907305B0955
:1013B000012000FA02F241F8232000BF0C37BD469D
:1013C00080BC704700E100E080B483B000AF03460A
:1013D0003960FB7197F90730002B0ADB3B68DAB202
:1013E0000C4997F907301201D2B20B4483F800235D
:1013F0000AE03B68DAB20849FB7903F00F03043BCB
:101400001201D2B20B441A7600BF0C37BD4680BC25
:10141000704700BF00E100E000ED00E080B489B05B
:1014200000AFF860B9607A60FB6803F00703FB6106
:10143000FB69C3F10703042B28BF0423BB61FB69CD
:101440000433062B02D9FB69033B00E000237B61D8
:101450004FF0FF32BB6902FA03F3DA43BB681A406C
:101460007B699A404FF0FF317B6901FA03F3D9435E
:101470007B680B40134318462437BD4680BC704739
:1014800080B582B000AF78607868FFF74FFF00BF8B
:101490000837BD4680BD80B586B000AF0346B96051
:1014A0007A60FB7300237B61FFF764FF78617A68E1
:1014B000B9687869FFF7B2FF024697F90F30114615
:1014C0001846FFF781FF00BF1837BD4680BD80B5C5
:1014D00082B000AF0346FB7197F907301846FFF75B
:1014E00057FF00BF0837BD4680BD80B485B000AF50
:1014F00078600023FB737B6893F82130DBB2022B0A
:1015000008D07B6804229A637B68002283F820203D
:10151000012320E07B681B681A687B681B6822F047
:101520000E021A607B681B681A687B681B6822F0D1
:1015300001021A607B681A6C7B68DB6B012101FA7F
:1015400002F25A607B68012283F821207B68002226
:1015500083F82020FB7B18461437BD4680BC7047BB
:1015600080B584B000AF78600023FB737B6893F88C
:101570002130DBB2022B05D07B6804229A63012361
:10158000FB7351E07B681B681A687B681B6822F05C
:101590000E021A607B681B681A687B681B6822F061
:1015A00001021A607B681B68224A934229D07B683B
:1015B0001B68214A934222D07B681B681F4A9342D2
:1015C0001AD07B681B681E4A934212D07B681B6846
:1015D0001C4A93420AD07B681B681B4A934202D183
:1015E0004FF480130EE04FF080730BE04FF4803324
:1015F00008E04FF4805305E04FF4807302E01023BD
:1016000000E00123114A53607B68012283F8212006
:101610007B68002283F820207B685B6B002B03D063
:101620007B685B6B78689847FB7B18461037BD4634
:1016300080BD00BF080002401C0002403000024094
:1016400044000240580002406C000240000002408A
:1016500080B48BB000AF7860396000237B620023D8
:101660003B6269E101227B6A02FA03F3FB613B689A
:101670001B68FA691340BB61BA69FB699A4240F082
:1016800058813B685B689A4A93425ED0984A93427D
:1016900075D8984A934258D0964A93426FD8964A42
:1016A000934252D0944A934269D8944A93424CD080
:1016B000924A934263D8924A934246D0904A9342C8
:1016C0005DD8122B2AD8122B59D801A252F823F038
:1016D0004B1700082517000837170008791700086E
:1016E0007F1700087F1700087F1700087F17000882
:1016F0007F1700087F1700087F1700087F17000872
:101700007F1700087F1700087F1700087F17000861
:101710007F1700082D17000841170008794A9342E7
:1017200013D02CE03B68DB683B6229E03B68DB6858
:1017300004333B6224E03B68DB6808333B621FE014
:101740003B68DB680C333B621AE03B689B68002B0C
:1017500002D104233B6213E03B689B68012B05D157
:1017600008233B627B68FA691A6109E008233B623F
:101770007B68FA695A6103E000233B6200E000BF26
:10178000BB69FF2B01D87B6801E07B6804337B6178
:10179000BB69FF2B02D87B6A9B0002E07B6A083B97
:1017A0009B003B617B691A680F213B6901FA03F3D7
:1017B000DB431A40396A3B6901FA03F31A437B6938
:1017C0001A603B685B6803F08053002B00F0B18027
:1017D0004D4B9B694C4A43F0010393614A4B9B6913
:1017E00003F00103BB60BB68484A7B6A9B08023375
:1017F00052F82330FB607B6A03F003039B000F2247
:1018000002FA03F3DB43FA681340FB607B68404A4B
:10181000934213D07B683F4A93420DD07B683E4A87
:10182000934207D07B683D4A934201D1032306E0EF
:10183000042304E0022302E0012300E000237A6A8B
:1018400002F0030292009340FA681343FB602F49B1
:101850007B6A9B080233FA6841F823203B685B6887
:1018600003F48013002B06D02D4B9A682C49BB69DA
:1018700013438B6006E02A4B9A68BB69DB43284917
:1018800013408B603B685B6803F40013002B06D0A9
:10189000234BDA682249BB691343CB6006E0204B37
:1018A000DA68BB69DB431E491340CB603B685B6869
:1018B00003F40033002B06D0194B5A681849BB6952
:1018C00013434B6006E0164B5A68BB69DB4314496F
:1018D00013404B603B685B6803F48033002B21D0DE
:1018E0000F4B1A680E49BB6913430B6021E000BF20
:1018F0000000321000003110000022100000211002
:101900000000121000001110001002400000014001
:1019100000080140000C014000100140001401408B
:10192000000401400B4B1A68BB69DB4309491340B3
:101930000B607B6A01337B623B681A687B6A22FA20
:1019400003F3002B7FF48EAE00BF00BF2C37BD46E3
:1019500080BC70470004014080B485B000AF78605F
:101960000B467B807B689A687B881340002B02D0F3
:101970000123FB7301E00023FB73FB7B1846143744
:10198000BD4680BC704780B483B000AF78600B4622
:101990007B8013467B707B78002B03D07A887B6832
:1019A0001A6103E07B881A047B681A6100BF0C3758
:1019B000BD4680BC704780B485B000AF78600B46F0
:1019C0007B807B68DB68FB607A88FB6813401A04C5
:1019D000FB68D9437B880B401A437B681A6100BFC0
:1019E0001437BD4680BC704780B400AF034B012262
:1019F0001A6000BFBD4680BC704700BF20000E4289
:101A000080B586B000AF78607B68002B01D10123E0
:101A100072E27B681B6803F00103002B00F08780F3
:101A2000924B5B6803F00C03042B0CD08F4B5B686C
:101A300003F00C03082B12D18C4B5B6803F480334A
:101A4000B3F5803F0BD1894B1B6803F40033002BA7
:101A50006CD07B685B68002B68D101234CE27B680B
:101A60005B68B3F5803F06D1804B1B687F4A43F427
:101A7000803313602EE07B685B68002B0CD17B4BBE
:101A80001B687A4A23F480331360784B1B68774ACB
:101A900023F4802313601DE07B685B68B3F5A02FFF
:101AA0000CD1724B1B68714A43F4802313606F4B57
:101AB0001B686E4A43F4803313600BE06B4B1B686A
:101AC0006A4A23F480331360684B1B68674A23F427
:101AD000802313607B685B68002B13D0FFF7F8FB53
:101AE000386108E0FFF7F4FB02463B69D31A642B28
:101AF00001D9032300E25D4B1B6803F40033002B84
:101B0000F0D014E0FFF7E4FB386108E0FFF7E0FBFA
:101B100002463B69D31A642B01D90323ECE1534BF2
:101B20001B6803F40033002BF0D100E000BF7B689A
:101B30001B6803F00203002B63D04C4B5B6803F07F
:101B40000C03002B0BD0494B5B6803F00C03082BF4
:101B50001CD1464B5B6803F48033002B16D1434BFA
:101B60001B6803F00203002B05D07B681B69012B67
:101B700001D00123C0E13D4B1B6823F0F8027B68D4
:101B80005B69DB00394913430B603AE07B681B69F2
:101B9000002B20D0364B01221A60FFF799FB3861E9
:101BA00008E0FFF795FB02463B69D31A022B01D9E7
:101BB0000323A1E12D4B1B6803F00203002BF0D09F
:101BC0002A4B1B6823F0F8027B685B69DB0027491E
:101BD00013430B6015E0264B00221A60FFF778FBD9
:101BE000386108E0FFF774FB02463B69D31A022B09
:101BF00001D9032380E11D4B1B6803F00203002B76
:101C0000F0D17B681B6803F00803002B3AD07B6897
:101C10009B69002B19D0174B01221A60FFF758FB64
:101C2000386108E0FFF754FB02463B69D31A022BE8
:101C300001D9032360E10D4B5B6A03F00203002B23
:101C4000F0D0012000F0FEFA1CE00A4B00221A60DE
:101C5000FFF73EFB38610FE0FFF73AFB02463B69B6
:101C6000D31A022B08D9032346E100BF001002401B
:101C70000000424280044242924B5B6A03F002033E
:101C8000002BE9D17B681B6803F00403002B00F0F4
:101C9000A6800023FB758B4BDB6903F08053002B80
:101CA0000DD1884BDB69874A43F08053D361854B64
:101CB000DB6903F08053BB60BB680123FB75824B7B
:101CC0001B6803F48073002B18D17F4B1B687E4A7E
:101CD00043F480731360FFF7FBFA386108E0FFF705
:101CE000F7FA02463B69D31A642B01D9032303E1B7
:101CF000754B1B6803F48073002BF0D07B68DB68A6
:101D0000012B06D16F4B1B6A6E4A43F0010313622D
:101D10002DE07B68DB68002B0CD16A4B1B6A694A9B
:101D200023F001031362674B1B6A664A23F0040326
:101D300013621CE07B68DB68052B0CD1614B1B6ACE
:101D4000604A43F0040313625E4B1B6A5D4A43F032
:101D5000010313620BE05B4B1B6A5A4A23F0010339
:101D60001362584B1B6A574A23F0040313627B68C3
:101D7000DB68002B15D0FFF7ABFA38610AE0FFF7FC
:101D8000A7FA02463B69D31A41F28832934201D93D
:101D90000323B1E04B4B1B6A03F00203002BEED090
:101DA00014E0FFF795FA38610AE0FFF791FA02466E
:101DB0003B69D31A41F28832934201D903239BE055
:101DC000404B1B6A03F00203002BEED1FB7D012B7D
:101DD00005D13C4BDB693B4A23F08053D3617B68E0
:101DE000DB69002B00F08780364B5B6803F00C0347
:101DF000082B61D07B68DB69022B46D1334B002274
:101E00001A60FFF765FA386108E0FFF761FA0246E9
:101E10003B69D31A022B01D903236DE0294B1B68C0
:101E200003F00073002BF0D17B681B6AB3F5803F91
:101E300008D1244B5B6823F400327B689B682149FE
:101E400013434B601F4B5B6823F474127B68196A61
:101E50007B685B6A0B431B4913434B601B4B01229E
:101E60001A60FFF735FA386108E0FFF731FA0246E9
:101E70003B69D31A022B01D903233DE0114B1B68A8
:101E800003F00073002BF0D035E0104B00221A60F5
:101E9000FFF71EFA386108E0FFF71AFA02463B69BD
:101EA000D31A022B01D9032326E0064B1B6803F04B
:101EB0000073002BF0D11EE07B68DB69012B07D19A
:101EC000012319E00010024000700040600042420F
:101ED0000B4B5B68FB60FB6803F480327B681B6A1A
:101EE0009A4206D1FB6803F470127B685B6A9A42DF
:101EF00001D0012300E0002318461837BD4680BDFD
:101F00000010024080B584B000AF786039607B6813
:101F1000002B01D10123D0E06A4B1B6803F00703BB
:101F20003A689A4210D9674B1B6823F0070265494B
:101F30003B6813430B60634B1B6803F007033A686D
:101F40009A4201D00123B8E07B681B6803F00203CA
:101F5000002B20D07B681B6803F00403002B05D006
:101F6000594B5B68584A43F4E06353607B681B68D5
:101F700003F00803002B05D0534B5B68524A43F42F
:101F800060535360504B5B6823F0F0027B689B68A2
:101F90004D4913434B607B681B6803F00103002B22
:101FA00040D07B685B68012B07D1474B1B6803F46B
:101FB0000033002B15D101237FE07B685B68022B87
:101FC00007D1414B1B6803F00073002B09D101239B
:101FD00073E03D4B1B6803F00203002B01D101238A
:101FE0006BE0394B5B6823F003027B685B68364922
:101FF00013434B60FFF76CF9F8600AE0FFF768F9EC
:102000000246FB68D31A41F28832934201D9032376
:1020100053E02D4B5B6803F00C027B685B689B0010
:102020009A42EBD1274B1B6803F007033A689A42A8
:1020300010D2244B1B6823F0070222493B6813434C
:102040000B60204B1B6803F007033A689A4201D0EB
:10205000012332E07B681B6803F00403002B08D0E7
:10206000194B5B6823F4E0627B68DB681649134315
:102070004B607B681B6803F00803002B09D0124BF0
:102080005B6823F460527B681B69DB000E491343D5
:102090004B6000F021F802460B4B5B681B0903F014
:1020A0000F030A49CB5C22FA03F3094A1360094B78
:1020B0001B681846FEF744FF002318461037BD463C
:1020C00080BD00BF0020024000100240205E0008DA
:1020D000080000200C00002080B487B000AF00236F
:1020E000FB600023BB6000237B6100237B60002337
:1020F0003B611E4B5B68FB60FB6803F00C03042B29
:1021000002D0082B03D027E0194B3B6127E0FB6886
:102110009B0C03F00F03174AD35C7B60FB6803F44E
:102120008033002B10D0114B5B685B0C03F0010374
:10213000114AD35CBB607B680D4A03FB02F2BB68AB
:10214000B2FBF3F37B6104E07B680C4A02FB03F310
:102150007B617B693B6102E0054B3B6100BF3B69F2
:1021600018461C37BD4680BC704700BF00100240B7
:1021700000127A00385E0008485E000800093D0041
:1021800080B400AF024B1B681846BD4680BC704748
:102190000800002080B500AFFFF7F2FF0246054BB4
:1021A0005B681B0A03F007030349CB5C22FA03F3C5
:1021B000184680BD00100240305E000880B500AFB8
:1021C000FFF7DEFF0246054B5B68DB0A03F00703FF
:1021D0000349CB5C22FA03F3184680BD001002408D
:1021E000305E000880B483B000AF786039607B68EF
:1021F0000F221A60114B5B6803F003027B685A6080
:102200000E4B5B6803F0F0027B689A600B4B5B68D7
:1022100003F4E0627B68DA60084B5B68DB0803F478
:10222000E0627B681A61064B1B6803F007023B689B
:102230001A6000BF0C37BD4680BC704700100240DA
:102240000020024080B485B000AF78600A4B1B6864
:102250000A4AA2FB03235B0A7A6802FB03F3FB60D2
:1022600000BFFB685A1EFA60002BF9D100BF00BF07
:102270001437BD4680BC704708000020D34D621063
:1022800080B582B000AF78607B68002B01D101235C
:1022900041E07B6893F83D30DBB2002B06D17B68D0
:1022A000002283F83C207868FEF7DAFD7B68022282
:1022B00083F83D207B681A687B6804331946104612
:1022C00000F0A6FA7B68012283F846207B68012291
:1022D00083F83E207B68012283F83F207B6801223F
:1022E00083F840207B68012283F841207B6801222B
:1022F00083F842207B68012283F843207B68012217
:1023000083F844207B68012283F845207B68012202
:1023100083F83D20002318460837BD4680BD0000E5
:1023200080B485B000AF78607B6893F83D30DBB255
:10233000012B01D0012332E07B68022283F83D208B
:102340007B681B68184A93420ED07B681B68B3F108
:10235000804F09D07B681B68144A934204D07B6885
:102360001B68134A934211D17B681B689B6803F07A
:102370000703FB60FB68062B10D07B681B681A689C
:102380007B681B6842F001021A6007E07B681B68EB
:102390001A687B681B6842F001021A600023184625
:1023A0001437BD4680BC7047002C0140000400403B
:1023B0000008004080B485B000AF78607B6893F877
:1023C0003D30DBB2012B01D001233AE07B680222D1
:1023D00083F83D207B681B68DA687B681B6842F0E5
:1023E0000102DA607B681B68184A93420ED07B6852
:1023F0001B68B3F1804F09D07B681B68144A934275
:1024000004D07B681B68134A934211D17B681B6818
:102410009B6803F00703FB60FB68062B10D07B680A
:102420001B681A687B681B6842F001021A6007E0AB
:102430007B681B681A687B681B6842F001021A609F
:10244000002318461437BD4680BC7047002C01405D
:10245000000400400008004080B584B000AF786000
:102460007B681B68DB68FB607B681B681B69BB6063
:10247000BB6803F00203002B20D0FB6803F00203CB
:10248000002B1BD07B681B686FF002021A617B680F
:1024900001221A777B681B689B6903F00303002BFA
:1024A00003D0786800F098F905E0786800F08BF9BF
:1024B000786800F09AF97B6800221A77BB6803F00D
:1024C0000403002B20D0FB6803F00403002B1BD077
:1024D0007B681B686FF004021A617B6802221A771E
:1024E0007B681B689B6903F44073002B03D07868FA
:1024F00000F072F905E0786800F065F9786800F09E
:1025000074F97B6800221A77BB6803F00803002B7C
:1025100020D0FB6803F00803002B1BD07B681B68EE
:102520006FF008021A617B6804221A777B681B68C7
:10253000DB6903F00303002B03D0786800F04CF94B
:1025400005E0786800F03FF9786800F04EF97B68A4
:1025500000221A77BB6803F01003002B20D0FB6821
:1025600003F01003002B1BD07B681B686FF0100278
:102570001A617B6808221A777B681B68DB6903F4A1
:102580004073002B03D0786800F026F905E07868E6
:1025900000F019F9786800F028F97B6800221A77B2
:1025A000BB6803F00103002B0CD0FB6803F00103B0
:1025B000002B07D07B681B686FF001021A617868F6
:1025C000FEF7E4FBBB6803F08003002B0CD0FB6834
:1025D00003F08003002B07D07B681B686FF080023C
:1025E0001A61786800F07FFABB6803F04003002BA3
:1025F0000CD0FB6803F04003002B07D07B681B68FE
:102600006FF040021A61786800F0F8F8BB6803F0D8
:102610002003002B0CD0FB6803F02003002B07D015
:102620007B681B686FF020021A61786800F052FA2C
:1026300000BF1037BD4680BD80B584B000AF786064
:1026400039600023FB737B6893F83C30012B01D188
:102650000223B4E07B68012283F83C207B680222DD
:1026600083F83D207B681B689B68BB60BB6823F0D8
:102670007703BB60BB6823F47F43BB607B681B6848
:10268000BA689A603B681B68B3F5005F3ED0B3F54B
:10269000005F00F28780B3F5805F00F08680B3F5BD
:1026A000805F7FD8702B1AD0702B7BD8602B50D0D6
:1026B000602B77D8502B3CD0502B73D8402B58D060
:1026C000402B6FD8302B64D0302B6BD8202B60D0B0
:1026D000202B67D8002B5CD0102B5AD062E07B688F
:1026E00018683B6899683B685A683B68DB6800F08B
:1026F00074F97B681B689B68BB60BB6843F0770319
:10270000BB607B681B68BA689A604FE07B6818689A
:102710003B6899683B685A683B68DB6800F05DF984
:102720007B681B689A687B681B6842F480429A60E9
:102730003CE07B6818683B6859683B68DB681A4670
:1027400000F0D4F87B681B685021184600F02BF984
:102750002CE07B6818683B6859683B68DB681A4660
:1027600000F0F2F87B681B686021184600F01BF946
:102770001CE07B6818683B6859683B68DB681A4650
:1027800000F0B4F87B681B684021184600F00BF994
:102790000CE07B681A683B681B681946104600F01D
:1027A00002F903E00123FB7300E000BF7B68012214
:1027B00083F83D207B68002283F83C20FB7B184691
:1027C0001037BD4680BD80B483B000AF786000BFD5
:1027D0000C37BD4680BC704780B483B000AF7860D2
:1027E00000BF0C37BD4680BC704780B483B000AFDB
:1027F000786000BF0C37BD4680BC704780B483B0A2
:1028000000AF786000BF0C37BD4680BC7047000049
:1028100080B485B000AF786039607B681B68FB606E
:102820007B682F4A93420BD07B68B3F1804F07D06F
:102830007B682C4A934203D07B682B4A934208D191
:10284000FB6823F07003FB603B685B68FA68134326
:10285000FB607B68224A93420BD07B68B3F1804FC8
:1028600007D07B681F4A934203D07B681E4A93427D
:1028700008D1FB6823F44073FB603B68DB68FA68AF
:102880001343FB60FB6823F080023B685B691343E2
:10289000FB607B68FA681A603B689A687B68DA625A
:1028A0003B681A687B689A627B680D4A934203D141
:1028B0003B681A697B681A637B6801225A617B68EE
:1028C0001B6903F00103002B05D07B681B6923F013
:1028D00001027B681A6100BF1437BD4680BC704797
:1028E000002C0140000400400008004080B487B084
:1028F00000AFF860B9607A60FB681B6A7B61FB68B7
:102900001B6A23F00102FB681A62FB689B693B614A
:102910003B6923F0F0033B617B681B013A69134379
:102920003B617B6923F00A037B617A69BB681343CF
:102930007B61FB683A699A61FB687A691A6200BF39
:102940001C37BD4680BC704780B487B000AFF860CC
:10295000B9607A60FB681B6A7B61FB681B6A23F0C5
:102960001002FB681A62FB689B693B613B6923F4B8
:1029700070433B617B681B033A6913433B617B698E
:1029800023F0A0037B61BB681B017A6913437B6161
:10299000FB683A699A61FB687A691A6200BF1C3762
:1029A000BD4680BC704780B485B000AF78603960A8
:1029B0007B689B68FB60FB6823F07003FB603A68F0
:1029C000FB68134343F00703FB607B68FA689A6077
:1029D00000BF1437BD4680BC704780B487B000AFDD
:1029E000F860B9607A603B60FB689B687B617B69DB
:1029F00023F47F437B613B681A027B681A43BB6800
:102A000013437A6913437B61FB687A699A6000BF5C
:102A10001C37BD4680BC704780B485B000AF78607D
:102A200039607B6893F83C30012B01D1022346E0EA
:102A30007B68012283F83C207B68022283F83D20DA
:102A40007B681B685B68FB607B681B689B68BB607E
:102A5000FB6823F07003FB603B681B68FA68134354
:102A6000FB607B681B68FA685A607B681B68164AC3
:102A700093420ED07B681B68B3F1804F09D07B680E
:102A80001B68124A934204D07B681B68104A934229
:102A90000CD1BB6823F08003BB603B685B68BA68FD
:102AA0001343BB607B681B68BA689A607B6801222D
:102AB00083F83D207B68002283F83C2000231846E1
:102AC0001437BD4680BC7047002C01400004004014
:102AD0000008004080B483B000AF786000BF0C37BE
:102AE000BD4680BC704780B483B000AF786000BF43
:102AF0000C37BD4680BC704780B582B000AF7860AF
:102B00007B68002B01D1012342E07B6893F84130C0
:102B1000DBB2002B06D17B68002283F84020786866
:102B2000FEF7BCF97B68242283F841207B681B6890
:102B3000DA687B681B6822F40052DA60786800F07B
:102B4000B7FD7B681B681A697B681B6822F490429A
:102B50001A617B681B685A697B681B6822F02A022D
:102B60005A617B681B68DA687B681B6842F4005214
:102B7000DA607B6800225A647B68202283F8412057
:102B80007B68202283F842207B6800225A6300235E
:102B900018460837BD4680BD80B58AB002AFF860E0
:102BA000B9603B601346FB8000237B61FB6893F8B0
:102BB0004130DBB2202B75D1BB68002B02D0FB88E3
:102BC000002B01D101236EE0FB6800225A64FB68F0
:102BD000212283F84120FEF77BFB7861FB68FA88AD
:102BE0009A84FB68FA88DA84FB689B68B3F5805F97
:102BF00008D1FB681B69002B04D10023FB61BB6873
:102C0000BB6103E0BB68FB610023BB612EE03B6856
:102C100000937B6900228021F86800F01CFB0346CA
:102C2000002B05D0FB68202283F8412003233AE0E3
:102C3000FB69002B0BD1BB691B881A46FB681B681C
:102C4000C2F308025A60BB690233BB6107E0FB694B
:102C50001A78FB681B685A60FB690133FB61FB68EB
:102C6000DB8C9BB2013B9AB2FB68DA84FB68DB8C9D
:102C70009BB2002BCBD13B6800937B6900224021A3
:102C8000F86800F0E8FA0346002B05D0FB68202224
:102C900083F84120032306E0FB68202283F84120CB
:102CA000002300E0022318462037BD4680BD80B5D2
:102CB00084B000AFF860B9601346FB80FB6893F8FE
:102CC0004230DBB2202B12D1BB68002B02D0FB8834
:102CD000002B01D101230BE0FB6800221A63FB8863
:102CE0001A46B968F86800F00FFB034600E00223BB
:102CF00018461037BD4680BD80B5BAB000AF7860C9
:102D00007B681B681B68C7F8E4307B681B68DB685E
:102D1000C7F8E0307B681B685B69C7F8DC300023CC
:102D2000C7F8D8300023C7F8D430D7F8E43003F020
:102D30000F03C7F8D830D7F8D830002B0FD1D7F809
:102D4000E43003F02003002B09D0D7F8E03003F083
:102D50002003002B03D0786800F0ECFB5BE2D7F88F
:102D6000D830002B00F0DE80D7F8DC3003F0010310
:102D7000002B06D1D7F8E03003F49073002B00F05D
:102D8000D180D7F8E43003F00103002B0BD0D7F843
:102D9000E03003F48073002B05D07B685B6C43F05C
:102DA00001027B685A64D7F8E43003F00403002B77
:102DB0000BD0D7F8DC3003F00103002B05D07B6883
:102DC0005B6C43F002027B685A64D7F8E43003F08E
:102DD0000203002B0BD0D7F8DC3003F00103002BEB
:102DE00005D07B685B6C43F004027B685A64D7F8BB
:102DF000E43003F00803002B11D0D7F8E03003F0E3
:102E00002003002B05D1D7F8DC3003F00103002BA1
:102E100005D07B685B6C43F008027B685A647B6872
:102E20005B6C002B00F0F281D7F8E43003F0200354
:102E3000002B08D0D7F8E03003F02003002B02D09D
:102E4000786800F077FB7B681B685B6903F04003E0
:102E5000002B14BF01230023DBB2C7F8D4307B68FA
:102E60005B6C03F00803002B03D1D7F8D430002BA0
:102E70004FD0786800F081FA7B681B685B6903F0CB
:102E80004003002B41D07B681B681433C7F89C308B
:102E9000D7F89C3053E8003FC7F89830D7F89830FF
:102EA00023F04003C7F8D0307B681B681433D7F891
:102EB000D020C7F8A820C7F8A430D7F8A410D7F8B6
:102EC000A82041E80023C7F8A030D7F8A030002B95
:102ED000D9D17B68DB6B002B13D07B68DB6B7E4A20
:102EE0005A637B68DB6B1846FEF73AFB0346002B00
:102EF00016D07B68DB6B5B6B7A68D26B10469847A9
:102F00000EE0786800F093F90AE0786800F08FF935
:102F100006E0786800F08BF97B6800225A6475E15E
:102F200000BF73E17B681B6B012B40F04F81D7F82A
:102F3000E43003F01003002B00F04881D7F8E030B4
:102F400003F01003002B00F041810023BB607B687D
:102F50001B681B68BB607B681B685B68BB60BB68E9
:102F60007B681B685B6903F04003002B00F0B680B0
:102F70007B68DB6B1B685B68A7F8BE30B7F8BE30B8
:102F8000002B00F045817B689B8DB7F8BE209A42EC
:102F900080F03E817B68B7F8BE20DA857B68DB6B0A
:102FA0009B69202B00F088807B681B680C33C7F876
:102FB0008830D7F8883053E8003FC7F88430D7F816
:102FC000843023F48073C7F8B8307B681B680C33F7
:102FD000D7F8B820C7F89420C7F89030D7F89010E9
:102FE000D7F8942041E80023C7F88C30D7F88C300C
:102FF000002BD9D17B681B6814337B677B6F53E848
:10300000003F3B673B6F23F00103C7F8B4307B6898
:103010001B681433D7F8B420C7F88020FB67F96F1A
:10302000D7F8802041E80023BB67BB6F002BE1D1BC
:103030007B681B6814333B663B6E53E8003FFB65BF
:10304000FB6D23F04003C7F8B0307B681B68143376
:10305000D7F8B020FA66BB66B96EFA6E41E8002375
:103060007B667B6E002BE3D17B68202283F84220B5
:103070007B6800221A637B681B680C33FB64FB6C63
:1030800053E8003FBB64BB6C23F01003C7F8AC30BF
:103090007B681B680C33D7F8AC20BA657B65796D0B
:1030A000BA6D41E800233B653B6D002BE3D17B68A3
:1030B000DB6B1846FEF719FA7B6802225A637B68BD
:1030C0009A8D7B68DB8D9BB2D31A9BB219467868C8
:1030D00000F0B6F89CE000BF3F3400087B689A8D92
:1030E0007B68DB8D9BB2D31AA7F8CE307B68DB8D73
:1030F0009BB2002B00F08E80B7F8CE30002B00F092
:1031000089807B681B680C33BB63BB6B53E8003F53
:103110007B637B6B23F49073C7F8C8307B681B68B4
:103120000C33D7F8C8207A643B64396C7A6C41E878
:103130000023FB63FB6B002BE3D17B681B6814331C
:103140007B627B6A53E8003F3B623B6A23F00103EA
:10315000C7F8C4307B681B681433D7F8C4203A63BF
:10316000FB62F96A3A6B41E80023BB62BB6A002B41
:10317000E3D17B68202283F842207B6800221A6317
:103180007B681B680C333B613B6953E8003FFB6085
:10319000FB6823F01003C7F8C0307B681B680C3352
:1031A000D7F8C020FA61BB61B969FA6941E8002328
:1031B0007B617B69002BE3D17B6802225A63B7F8FD
:1031C000CE301946786800F03BF823E0D7F8E430B9
:1031D00003F08003002B09D0D7F8E03003F0800320
:1031E000002B03D0786800F03EF914E0D7F8E43003
:1031F00003F04003002B0ED0D7F8E03003F040037B
:10320000002B08D0786800F07DF904E000BF02E0F0
:1032100000BF00E000BFE837BD4680BD80B483B08A
:1032200000AF786000BF0C37BD4680BC704780B4EB
:1032300083B000AF786000BF0C37BD4680BC7047DC
:1032400080B483B000AF78600B467B8000BF0C3742
:10325000BD4680BC704780B586B000AFF860B960ED
:103260003B601346FB713BE03B6AB3F1FF3F37D055
:10327000FEF72EF802463B68D31A3A6A9A4202D306
:103280003B6A002B01D103233AE0FB681B68DB6833
:1032900003F00403002B23D0BB68802B20D0BB6835
:1032A000402B1DD0FB681B681B6803F00803082B2C
:1032B00016D100237B61FB681B681B687B61FB6880
:1032C0001B685B687B617B69F86800F056F8FB68F7
:1032D00008225A64FB68002283F8402001230FE093
:1032E000FB681B681A68BB681340BA689A420CBF37
:1032F00001230023DBB21A46FB799A42B4D00023A3
:1033000018461837BD4680BD80B485B000AFF86060
:10331000B9601346FB80FB68BA689A62FB68FA885A
:103320009A85FB68FA88DA85FB6800225A64FB6894
:10333000222283F84220FB681B69002B07D0FB6820
:103340001B68DA68FB681B6842F48072DA60FB680D
:103350001B685A69FB681B6842F001025A61FB68EE
:103360001B68DA68FB681B6842F02002DA60002301
:1033700018461437BD4680BC704780B495B000AF86
:1033800078607B681B680C337B637B6B53E8003F82
:103390003B633B6B23F49073FB647B681B680C33CB
:1033A000FA6C3A64FB63F96B3A6C41E80023BB6347
:1033B000BB6B002BE5D17B681B6814333B623B6A17
:1033C00053E8003FFB61FB6923F00103BB647B68AA
:1033D0001B681433BA6CFA62BB62B96AFA6A41E8D4
:1033E00000237B627B6A002BE5D17B681B6B012B82
:1033F00019D17B681B680C33FB60FB6853E8003F06
:10340000BB60BB6823F010037B647B681B680C33D4
:103410007A6CBA617B617969BA6941E800233B61E2
:103420003B69002BE5D17B68202283F842207B6832
:1034300000221A6300BF5437BD4680BC704780B578
:1034400084B000AF78607B685B6AFB60FB68002239
:10345000DA85FB680022DA84F868FFF7E8FE00BF2F
:103460001037BD4680BD80B485B000AF78607B6802
:1034700093F84130DBB2212B3ED17B689B68B3F5DA
:10348000805F14D17B681B69002B10D17B681B6A9D
:10349000FB60FB681B881A467B681B68C2F3080246
:1034A0005A607B681B6A9A1C7B681A6208E07B681A
:1034B0001B6A591C7A6811621A787B681B685A600B
:1034C0007B68DB8C9BB2013B9BB27A681946D18446
:1034D000002B0FD17B681B68DA687B681B6822F0C1
:1034E0008002DA607B681B68DA687B681B6842F0E0
:1034F0004002DA60002300E0022318461437BD467C
:1035000080BC704780B582B000AF78607B681B6874
:10351000DA687B681B6822F04002DA607B68202250
:1035200083F841207868FFF779FE002318460837B2
:10353000BD4680BD80B58CB000AF78607B6893F8E5
:103540004230DBB2222B40F0AE807B689B68B3F543
:10355000805F17D17B681B69002B13D10023FB62AE
:103560007B689B6ABB627B681B685B689BB2C3F32A
:1035700008039AB2BB6A1A807B689B6A9A1C7B68B4
:103580009A6226E07B689B6AFB620023BB627B68D1
:103590009B68B3F5805F07D07B689B68002B0AD1DE
:1035A0007B681B69002B06D17B681B685B68DAB2FD
:1035B000FB6A1A7008E07B681B685B68DBB203F08B
:1035C0007F03DAB2FB6A1A707B689B6A5A1C7B68BD
:1035D0009A627B68DB8D9BB2013B9BB27A6819468D
:1035E000D185002B5DD17B681B68DA687B681B681E
:1035F00022F02002DA607B681B68DA687B681B684F
:1036000022F48072DA607B681B685A697B681B68E9
:1036100022F001025A617B68202283F842207B68F5
:1036200000225A637B681B6B012B35D17B6800221B
:103630001A637B681B680C337B617B6953E8003F2E
:103640003B613B6923F010037B627B681B680C3392
:103650007A6A3A62FB61F9693A6A41E80023BB6120
:10366000BB69002BE5D17B681B681B6803F0100366
:10367000102B0AD10023FB607B681B681B68FB6072
:103680007B681B685B68FB60FB687B689B8D1946E9
:103690007868FFF7D5FD02E07868FDF77BF9002335
:1036A00002E0002300E0022318463037BD4680BD0B
:1036B00080B584B000AF78607B681B681B6923F419
:1036C00040517B68DA687B681B680A431A617B6833
:1036D0009A687B681B691A437B685B691343BB600C
:1036E0007B681B68DB6823F4B05323F00C037A6813
:1036F0001268B9680B43D3607B681B685B6923F46D
:1037000040717B689A697B681B680A435A617B68D1
:103710001B682C4A934203D1FEF750FDF86002E08B
:10372000FEF738FDF860FA6813469B0013449A00D0
:103730001A447B685B689B00B2FBF3F3224AA2FB4E
:1037400003235B091901FA6813469B0013449A008E
:103750001A447B685B689B00B2FBF3F21A4BA3FB35
:1037600002035B09642000FB03F3D31A1B0132330D
:10377000154AA2FB03235B0903F0F0031944FA681E
:1037800013469B0013449A001A447B685B689B00B5
:10379000B2FBF3F20C4BA3FB02035B09642000FBBA
:1037A00003F3D31A1B013233074AA2FB03235B093D
:1037B00003F00F027B681B680A449A6000BF103751
:1037C000BD4680BD003801401F85EB5180B483B0F9
:1037D00000AF78607B6803F108027B685A607B6801
:1037E0004FF0FF329A607B6803F108027B68DA6071
:1037F0007B6803F108027B681A617B6800221A600B
:1038000000BF0C37BD4680BC704780B483B000AFAA
:1038100078607B6800221A6100BF0C37BD4680BC0F
:10382000704780B485B000AF786039607B685B68B2
:10383000FB603B68FA685A60FB689A683B689A606C
:10384000FB689B683A685A60FB683A689A603B6814
:103850007A681A617B681B685A1C7B681A6000BF13
:103860001437BD4680BC704780B485B000AF786027
:1038700039603B681B68BB60BB68B3F1FF3F03D195
:103880007B681B69FB600CE07B680833FB6002E02F
:10389000FB685B68FB60FB685B681B68BA689A4200
:1038A000F6D2FB685A683B685A603B685B683A68C6
:1038B0009A603B68FA689A60FB683A685A603B68AD
:1038C0007A681A617B681B685A1C7B681A6000BFA3
:1038D0001437BD4680BC704780B485B000AF7860B7
:1038E0007B681B69FB607B685B687A6892689A609A
:1038F0007B689B687A6852685A60FB685B687A6884
:103900009A4203D17B689A68FB685A607B68002200
:103910001A61FB681B685A1EFB681A60FB681B680B
:1039200018461437BD4680BC7047000080B584B08F
:1039300000AF786039607B68FB6001F0ADFAFB682E
:103940001A68FB68DB6BF968096C01FB03F31A4426
:10395000FB689A60FB6800229A63FB681A68FB6840
:103960005A60FB681A68FB68DB6B013BF968096CFD
:1039700001FB03F31A44FB68DA60FB68FF2283F85B
:103980004420FB68FF2283F845203B68002B14D1BC
:10399000FB681B69002B1AD0FB681033184600F037
:1039A0004DFE0346002B12D00C4B4FF080521A6094
:1039B000BFF34F8FBFF36F8F09E0FB6810331846DA
:1039C000FFF704FFFB6824331846FFF7FFFE01F002
:1039D0007DFA012318461037BD4680BD04ED00E096
:1039E00080B58AB002AFF860B9601346FB71FB681E
:1039F000BA6802FB03F3FB61FB694833184601F028
:103A0000E7FAB861BB69002B11D0BB697B617B69A8
:103A100048337B61BB69002283F84620FA79BB6991
:103A2000009313467A69B968F86800F005F8BB6935
:103A300018462037BD4680BD80B584B000AFF86021
:103A4000B9607A60FB70BB68002B03D1BB69BA69AF
:103A50001A6002E0BB697A681A60BB69FA68DA63C7
:103A6000BB69BA681A640121B869FFF75FFF00BF3C
:103A70001037BD4680BD000080B58AB000AFF86049
:103A8000B9607A603B6000237B62FB683B6201F0B7
:103A900003FA3B6A9A6B3B6ADB6B9A4202D33B6840
:103AA000022B29D13A68B968386A00F06EF9F861DA
:103AB0003B6A5B6A002B10D03B6A2433184600F047
:103AC000BDFD0346002B13D03F4B4FF080521A60D0
:103AD000BFF34F8FBFF36F8F0AE0FB69002B07D056
:103AE000394B4FF080521A60BFF34F8FBFF36F8F87
:103AF00001F0ECF9012363E07B68002B03D101F0B6
:103B0000E5F900235CE07B6A002B06D107F1140382
:103B1000184600F0E7FD01237B6201F0D7F900F0C1
:103B2000EDFB01F0B9F93B6A93F844305BB2B3F1B5
:103B3000FF3F03D13B6A002283F844203B6A93F89D
:103B400045305BB2B3F1FF3F03D13B6A002283F8FB
:103B5000452001F0BBF93A1D07F114031146184640
:103B600000F0D6FD0346002B24D1386A00F0DFF9BF
:103B70000346002B18D03B6A10337A68114618466A
:103B800000F046FD386A00F06AF900F0C5FB034614
:103B9000002B7FF47CAF0C4B4FF080521A60BFF3C8
:103BA0004F8FBFF36F8F72E7386A00F058F900F05B
:103BB000B3FB6CE7386A00F052F900F0ADFB00236C
:103BC00018462837BD4680BD04ED00E080B58AB0B8
:103BD00000AF7860396000237B627B68FB61002363
:103BE0003B6201F059F9FB699B6BBB61BB69002B20
:103BF00024D0BB695A1EFB699A63FB691B68002BC2
:103C000004D101F001F80246FB699A60FB691B6967
:103C1000002B0FD0FB691033184600F00FFD034650
:103C2000002B07D04C4B4FF080521A60BFF34F8FE0
:103C3000BFF36F8F01F04AF9012389E03B68002B45
:103C400003D101F043F9002382E07B6A002B06D107
:103C500007F10C03184600F045FD01237B6201F0DB
:103C600035F900F04BFB01F017F9FB6993F844308C
:103C70005BB2B3F1FF3F03D1FB69002283F844201C
:103C8000FB6993F845305BB2B3F1FF3F03D1FB69A9
:103C9000002283F8452001F019F93A4607F10C0398
:103CA0001146184600F034FD0346002B32D1F86966
:103CB00000F027F90346002B26D0FB691B68002B78
:103CC00009D101F0E9F8FB699B68184600F054FE41
:103CD000386201F0FBF8FB6924333A681146184654
:103CE00000F096FCF86900F0BAF800F015FB034606
:103CF000002B7FF476AF184B4FF080521A60BFF361
:103D00004F8FBFF36F8F6CE7F86900F0A8F800F0F1
:103D100003FB66E7F86900F0A2F800F0FDFAF86925
:103D200000F0EFF80346002B3FF45BAF3B6A002B3B
:103D30000DD001F0B1F8F86900F010F87861FB6976
:103D40009B687969184600F0F1FE01F0BFF8002386
:103D500018462837BD4680BD04ED00E080B485B02C
:103D600000AF78607B685B6A002B06D07B681B6BBA
:103D70001B68C3F10703FB6001E00023FB60FB68E5
:103D800018461437BD4680BC704780B586B000AF7A
:103D9000F860B9607A6000237B61FB689B6B3B61D4
:103DA000FB681B6C002B0DD1FB681B68002B4DD1F1
:103DB000FB689B68184600F055FE7861FB6800229E
:103DC0009A6043E07B68002B19D1FB685868FB6858
:103DD0001B6C1A46B96801F0E5FAFB685A68FB6883
:103DE0001B6C1A44FB685A60FB685A68FB689B6846
:103DF0009A422BD3FB681A68FB685A6026E0FB687E
:103E0000D868FB681B6C1A46B96801F0CBFAFB68EE
:103E1000DA68FB681B6C5B421A44FB68DA60FB687B
:103E2000DA68FB681B689A4207D2FB689A68FB68ED
:103E30001B6C5B421A44FB68DA607B68022B05D17D
:103E40003B69002B02D03B69013B3B613B695A1C3B
:103E5000FB689A637B6918461837BD4680BD80B5FC
:103E600084B000AF786001F017F87B6893F84530B4
:103E7000FB7311E07B685B6A002B12D07B682433F4
:103E8000184600F0DBFB0346002B01D000F086FC57
:103E9000FB7B013BDBB2FB7397F90F30002BE9DCB6
:103EA00000E000BF7B68FF2283F8452001F00EF898
:103EB00000F0F2FF7B6893F84430BB7311E07B683D
:103EC0001B69002B12D07B681033184600F0B6FB3C
:103ED0000346002B01D000F061FCBB7B013BDBB251
:103EE000BB7397F90E30002BE9DC00E000BF7B6864
:103EF000FF2283F8442000F0E9FF00BF1037BD46E1
:103F000080BD80B584B000AF786000F0C5FF7B68ED
:103F10009B6B002B02D10123FB6001E00023FB60BF
:103F200000F0D4FFFB6818461037BD4680BD80B551
:103F300084B000AF786000F0AFFF7B689A6B7B685D
:103F4000DB6B9A4202D10123FB6001E00023FB609E
:103F500000F0BCFFFB6818461037BD4680BD80B539
:103F60008CB004AFF860B9607A603B6054237B6129
:103F70007B693B6B002B1ED0FB6A002B1BD03B6B7D
:103F8000FB61FB69FA6A1A63FB69022283F851201C
:103F900000230393FB69029307F118030193BB6AA3
:103FA00000933B687A68B968F86800F050F8F869DF
:103FB00000F0C4F801E00023BB61BB69184620375C
:103FC000BD4680BD80B58CB004AFF860B9603B6081
:103FD0001346FB80FB889B00184600F0F9FF7861D0
:103FE0007B69002B0ED0542000F0F2FFF861FB69D2
:103FF000002B03D0FB697A691A6305E0786901F048
:1040000081F801E00023FB61FB69002B17D0FB69FD
:10401000002283F85120FA8800230393FB6902935E
:10402000FB6A0193BB6A00933B68B968F86800F0CB
:104030000EF8F86900F082F80123BB6102E04FF04E
:10404000FF33BB61BB6918462037BD4680BD80B5D4
:1040500086B000AFF860B9607A603B60BB6A1A6BEB
:104060007B6803F18043013B9B0013443B613B6948
:1040700023F007033B61BB68002B1FD000237B614B
:1040800012E0BA687B6913441978BA6A7B691344F1
:1040900034330A461A70BA687B6913441B78002BC4
:1040A00006D07B6901337B617B690F2BE9D900E086
:1040B00000BFBB6A002283F8432003E0BB6A0022F2
:1040C00083F834203B6A062B01D906233B62BB6A86
:1040D0003A6ADA62BB6A3A6A5A64BB6A00229A6434
:1040E000BB6A04331846FFF790FBBB6A18331846C7
:1040F000FFF78BFBBB6ABA6A1A613B6AC3F107021E
:10410000BB6A9A61BB6ABA6A5A62BB6A0022DA6405
:10411000BB6A002283F850203A68F968386900F0D9
:10412000EDFD0246BB6A1A607B6A002B02D07B6AF7
:10413000BA6A1A6000BF1837BD4680BD80B582B02C
:1041400000AF786000F0A8FE2A4B1B680133294AB3
:104150001360294B1B68002B09D1274A7B68136029
:10416000244B1B68012B10D100F03CFB0DE0234BCE
:104170001B68002B09D1204B1B68DA6A7B68DB6A5D
:104180009A4202D81C4A7B6813601D4B1B6801339E
:104190001B4A13607B68DB6A01229A40194B1B683B
:1041A0001343184A13607B68DA6A13469B00134472
:1041B0009B00154A1A447B68043319461046FFF7E2
:1041C00030FB00F083FE0D4B1B68002B0ED00A4B1A
:1041D0001B68DA6A7B68DB6A9A4207D20B4B4FF0A6
:1041E00080521A60BFF34F8FBFF36F8F00BF083745
:1041F000BD4680BDE0040020E0030020EC04002068
:10420000FC040020E8040020E403002004ED00E0AA
:1042100080B584B000AF78600023FB607B68002B22
:1042200008D000F06BF80021786800F001FD00F084
:1042300073F8F860FB68002B07D1064B4FF08052F3
:104240001A60BFF34F8FBFF36F8F00BF1037BD46AB
:1042500080BD00BF04ED00E080B58AB004AF00234C
:10426000FB600023BB603A1D07F1080107F10C0356
:104270001846FBF775FF7968BB68FA6802920193EC
:104280000023009300230A4616491748FFF767FEEC
:104290000346164A1360154B1B68002B02D00123FE
:1042A0007B6101E000237B617B69012B15D14FF01D
:1042B000500383F31188BFF36F8FBFF34F8F3B61C0
:1042C00000BF0B4B4FF0FF321A600A4B01221A60FD
:1042D000094B00221A6000F07FFD00BF1837BD4671
:1042E00080BD00BF185E0008B54700080405002027
:1042F00000050020EC040020E404002080B400AF9E
:10430000044B1B680133034A136000BFBD4680BCE9
:10431000704700BF0805002080B584B000AF0023BF
:10432000FB600023BB6000F0B7FD394B1B68013B0D
:10433000374A1360364B1B68002B61D1354B1B6825
:10434000002B5DD02EE0344BDB68DB68FB60FB6844
:1043500018331846FFF7C0FAFB6804331846FFF716
:10436000BBFAFB68DB6A01229A402C4B1B681343A3
:104370002A4A1360FB68DA6A13469B0013449B00C9
:10438000274A1A44FB68043319461046FFF749FAD6
:10439000FB68DA6A234B1B68DB6A9A4202D3224B22
:1043A00001221A601C4B1B68002BCCD1FB68002B30
:1043B00001D000F0A3FA1D4B1B687B607B68002BCB
:1043C00010D000F037F80346002B02D0164B012224
:1043D0001A607B68013B7B607B68002BF1D1134B3B
:1043E00000221A60104B1B68002B09D00123BB6010
:1043F0000F4B4FF080521A60BFF34F8FBFF36F8F98
:1044000000F064FDBB6818461037BD4680BD00BF94
:1044100008050020E0040020A0040020E80400209B
:10442000E4030020E0030020F4040020F004002056
:1044300004ED00E080B586B000AF00237B61464B01
:104440001B68002B7DD1454B1B6801333B61434A00
:104450003B6913603B69002B10D1414B1B68FB602B
:10446000404B1B683E4A13603E4AFB6813603E4B5C
:104470001B6801333C4A136000F040FA3B4B1B6859
:104480003A699A4248D3364B1B681B68002B04D10B
:10449000364B4FF0FF321A603EE0314B1B68DB6851
:1044A000DB68BB60BB685B687B603A697B689A428B
:1044B00003D22E4A7B6813602EE0BB680433184693
:1044C000FFF70AFABB689B6A002B04D0BB6818335D
:1044D0001846FFF701FABB68DB6A01229A40244BB9
:1044E0001B681343224A1360BB68DA6A13469B00B9
:1044F00013449B001F4A1A44BB68043319461046F4
:10450000FFF78FF9BB68DA6A1B4B1B68DB6A9A42BC
:10451000B9D301237B61B6E7174B1B68DA6A1549EB
:1045200013469B0013449B000B441B68012B01D9CD
:1045300001237B61114B1B68002B07D001237B619A
:1045400004E00F4B1B6801330D4A13607B6918466A
:104550001837BD4680BD00BF08050020E4040020D8
:10456000980400209C040020F8040020000500208E
:10457000E8040020E4030020E0030020F40400200D
:10458000F004002080B485B000AF1C4B1B68002BEA
:1045900003D01B4B01221A602AE0194B00221A603B
:1045A000184B1B687B607B68B3FA83F3FB70FB7866
:1045B000C3F11F03FB60FA6813469B0013449B0082
:1045C000114A1344BB60BB685B685A68BB685A6099
:1045D000BB685A68BB6808339A4204D1BB685B6801
:1045E0005A68BB685A60BB685B68DB68074A13603F
:1045F00000BF1437BD4680BC704700BF08050020CF
:10460000F4040020E8040020E4030020E00300207C
:1046100080B582B000AF78603960074B1B681833F3
:1046200019467868FFF720F90121386800F000FB8F
:1046300000BF0837BD4680BDE003002080B584B0D0
:1046400000AF78607B68DB68DB68BB60BB681833F1
:104650001846FFF741F91D4B1B68002B1CD1BB68A6
:1046600004331846FFF738F9BB68DB6A01229A4029
:10467000174B1B681343164A1360BB68DA6A13466C
:104680009B0013449B00134A1A44BB680433194629
:104690001046FFF7C6F805E0BB68183319460E4808
:1046A000FFF7BFF8BB68DA6A0C4B1B68DB6A9A42FB
:1046B00005D90123FB600A4B01221A6001E00023A7
:1046C000FB60FB6818461037BD4680BD080500201A
:1046D000E8040020E4030020A0040020E003002000
:1046E000F404002080B483B000AF7860064B1A68F1
:1046F0007B681A60054B1A687B685A6000BF0C37EC
:10470000BD4680BC704700BFF8040020E4040020D0
:1047100080B586B000AF7860396000F0BDFB1D4BFE
:104720001B683B617B685B683A69D31AFB603B6836
:104730001B68B3F1FF3F02D100237B6123E07B685C
:104740001A68154B1B689A4207D07B685B683A6908
:104750009A4202D301237B6115E03B681B68FA682B
:104760009A420BD23B681A68FB68D21A3B681A60FF
:104770007868FFF7B7FF00237B6104E03B68002205
:104780001A6001237B6100F0A1FB7B691846183792
:10479000BD4680BDE4040020F804002080B400AFD2
:1047A000034B01221A6000BFBD4680BC704700BFAA
:1047B000F404002080B582B000AF786000F052F8B9
:1047C000064B1B68012BF9D9054B4FF080521A603C
:1047D000BFF34F8FBFF36F8FF0E700BFE4030020FC
:1047E00004ED00E080B582B000AF00237B600CE0F8
:1047F0007A6813469B0013449B00124A13441846E0
:10480000FEF7E4FF7B6801337B607B68062BEFD902
:104810000D48FEF7DBFF0D48FEF7D8FF0C48FEF70A
:10482000D5FF0C48FEF7D2FF0B48FEF7CFFF0B4B2E
:10483000054A1A600A4B054A1A6000BF0837BD4690
:1048400080BD00BFE4030020700400208404002029
:10485000A0040020B4040020CC0400209804002010
:104860009C04002080B582B000AF19E000F014FB7A
:10487000104BDB68DB687B607B6804331846FFF70E
:104880002BF80D4B1B68013B0B4A13600B4B1B684D
:10489000013B0A4A136000F019FB786800F010F839
:1048A000064B1B68002BE1D100BF00BF0837BD4697
:1048B00080BD00BFB4040020E0040020C804002034
:1048C00080B582B000AF78607B6893F85130002BE0
:1048D00008D17B681B6B184600F014FC786800F068
:1048E00011FC07E07B6893F85130012B02D1786806
:1048F00000F008FC00BF0837BD4680BD80B483B01F
:1049000000AF0C4B1B681B68002B04D10A4B4FF007
:10491000FF321A6008E0074B1B68DB68DB687B60CE
:104920007B685B68044A136000BF0C37BD4680BCDF
:10493000704700BF980400200005002080B483B0B9
:1049400000AF0B4B1B68002B02D101237B6008E0FA
:10495000084B1B68002B02D102237B6001E000237F
:104960007B607B6818460C37BD4680BC704700BF33
:10497000EC0400200805002080B584B000AF78600A
:104980007B68BB600023FB607B68002B5ED0BB684C
:10499000DA6A314B1B68DB6A9A424ED2BB689B696C
:1049A000002B06DB2C4B1B68DB6AC3F10702BB68DC
:1049B0009A61BB685969BB68DA6A13469B00134465
:1049C0009B00264A134499422FD1BB6804331846F2
:1049D000FEF782FF0346002B0AD1BB68DB6A012287
:1049E00002FA03F3DA431E4B1B6813401C4A1360A0
:1049F000194B1B68DA6ABB68DA62BB68DB6A0122A2
:104A00009A40174B1B681343154A1360BB68DA6A58
:104A100013469B0013449B00104A1A44BB6804339E
:104A200019461046FEF7FDFE04E00B4B1B68DA6AE0
:104A3000BB68DA620123FB6008E0BB685A6C064B76
:104A40001B68DB6A9A4201D20123FB60FB681846AF
:104A50001037BD4680BD00BFE0030020E403002006
:104A6000E804002080B584B000AF78607B68BB604C
:104A70000023FB607B68002B4FD0BB689B6C5A1EE9
:104A8000BB689A64BB68DA6ABB685B6C9A4244D0C4
:104A9000BB689B6C002B40D1BB6804331846FEF703
:104AA0001BFF0346002B15D1BB68DA6A1D4913466C
:104AB0009B0013449B000B441B68002B0AD1BB686E
:104AC000DB6A012202FA03F3DA43174B1B68134037
:104AD000154A1360BB685A6CBB68DA62BB68DB6A54
:104AE000C3F10702BB689A61BB68DB6A01229A4086
:104AF0000D4B1B6813430C4A1360BB68DA6A1346FC
:104B00009B0013449B00074A1A44BB6804331946B0
:104B10001046FEF786FE0123FB60FB68184610373F
:104B2000BD4680BDE4030020E804002080B586B0C7
:104B300000AF786039607B683B610123FB607B6874
:104B4000002B58D03B695B6C3A689A4202D93B68AB
:104B50007B6102E03B695B6C7B613B69DB6A7A6984
:104B60009A4248D03B699B6CFA689A4243D13B69B0
:104B7000DB6ABB603B697A69DA623B699B69002B3F
:104B800004DB7B69C3F107023B699A613B695969A0
:104B9000BA6813469B0013449B00194A1344994278
:104BA00029D13B6904331846FEF796FE0346002BD5
:104BB0000AD13B69DB6A012202FA03F3DA43114BA3
:104BC0001B6813400F4A13603B69DB6A01229A405D
:104BD0000C4B1B6813430B4A13603B69DA6A13469C
:104BE0009B0013449B00064A1A443B690433194650
:104BF0001046FEF716FE00BF1837BD4680BD00BF49
:104C0000E4030020E804002080B400AF074B1B68D9
:104C1000002B04D0054B1B689A6C01329A64034B3D
:104C20001B681846BD4680BC704700BFE0030020EB
:104C300080B584B000AF78603960294B1B68FB6099
:104C4000284B1B6804331846FEF746FE0346002B2C
:104C50000BD1244B1B68DB6A012202FA03F3DA430F
:104C6000214B1B681340204A13607B68B3F1FF3F60
:104C70000AD13B68002B07D01A4B1B680433194636
:104C80001A48FEF7CEFD26E0FA687B681344BB6045
:104C9000144B1B68BA685A60BA68FB689A4209D21A
:104CA000134B1A680F4B1B68043319461046FEF766
:104CB000DBFD10E00F4B1A680A4B1B6804331946E2
:104CC0001046FEF7D1FD0C4B1B68BA689A4202D21F
:104CD000094ABB68136000BF1037BD4680BD00BFE6
:104CE000E4040020E0030020E8040020CC040020BD
:104CF0009C040020980400200005002080B485B0AA
:104D000000AFF860B9607A60FB68043BFB60FB6849
:104D10004FF080721A60FB68043BFB60BB6823F0B5
:104D20000102FB681A60FB68043BFB60084AFB68F1
:104D30001A60FB68143BFB607A68FB681A60FB68CA
:104D4000203BFB60FB6818461437BD4680BC7047AB
:104D5000554D000880B483B000AF00233B604FF096
:104D6000500383F31188BFF36F8FBFF34F8F7B60C6
:104D700000BF00BF3B68002BFCD000BF00BF0C375A
:104D8000BD4680BC7047000000000000000000002D
:104D9000074B19680868B0E8F00F80F30988BFF383
:104DA0006F8F4FF0000080F311884EF00D0E7047AA
:104DB000E003002000BF00BF06480068006880F3E1
:104DC000088862B661B6BFF34F8FBFF36F8F00DF05
:104DD00000BF00BF08ED00E080B584B000AF294BF4
:104DE000FB60FB681B78DBB2BB60FB68FF221A70BC
:104DF000FB681B78DBB2FB71FB79DBB203F050037D
:104E0000DAB2214B1A70214B07221A6009E01F4BBE
:104E10001B68013B1D4A1360FB79DBB25B00DBB210
:104E2000FB71FB79DBB203F08003802BEFD0174BD3
:104E30001B681B02154A1360144B1B6803F4E063E4
:104E4000124A1360BB68DAB2FB681A70104B1B6819
:104E50000F4A43F4700313600D4B1B680C4A43F078
:104E60007043136000F092F80A4B00221A60FFF7BB
:104E7000A3FFFFF787FBFFF76DFF002318461037EE
:104E8000BD4680BD00E400E00C05002010050020B8
:104E900020ED00E01400002080B483B000AF4FF09C
:104EA000500383F31188BFF36F8FBFF34F8F7B6085
:104EB00000BF054B1B680133034A136000BF0C376A
:104EC000BD4680BC704700BF1400002080B483B092
:104ED00000AF0A4B1B68013B084A1360074B1B6875
:104EE000002B05D100237B607B6883F3118800BF12
:104EF00000BF0C37BD4680BC704700BF14000020C7
:104F0000EFF30980BFF36F8F0D4B1A6820E9F00FA4
:104F100010602DE908404FF0500080F31188FFF732
:104F200031FB4FF0000080F31188BDE8084019689C
:104F30000868B0E8F00F80F30988BFF36F8F7047FF
:104F4000E003002000BF00BF80B582B000AF4FF08B
:104F5000500383F31188BFF36F8FBFF34F8F7B60D4
:104F600000BFFFF767FA0346002B03D0064B4FF054
:104F700080521A6000233B603B6883F3118800BFB6
:104F800000BF0837BD4680BD04ED00E080B400AF2F
:104F90000A4B00221A600A4B00221A60094B1B6858
:104FA000094AA2FB03239B09084A013B1360034BF8
:104FB00007221A6000BFBD4680BC704710E000E0C9
:104FC00018E000E008000020D34D621014E000E07B
:104FD00080B586B000AF78600023FB60FFF78EF9E4
:104FE000424B1B68002B01D100F0CCF8404B1A68F3
:104FF0007B681340002B72D17B68002B0DD00822F8
:105000007B6813447B607B6803F00703002B04D0AC
:105010007B6823F0070308337B607B68002B5ED03E
:10502000344B1B687A689A4259D8334B3B61324BF8
:105030001B687B6104E07B693B617B691B687B616A
:105040007B695B687A689A4203D97B691B68002B8D
:10505000F1D1264B1B687A699A4240D03B691B68A4
:1050600008221344FB607B691A683B691A607B69FC
:105070005A687B68D21A08235B009A420FD97A6972
:105080007B681344BB607B695A687B68D21ABB6833
:105090005A607B697A685A60B86800F0D5F8154B99
:1050A0001A687B695B68D31A124A1360114B1A683D
:1050B000124B1B689A4203D20E4B1B680F4A1360B7
:1050C0007B695A680A4B1B681A437B695A607B6983
:1050D00000221A600A4B1B680133094A1360FFF76C
:1050E0001BF9FB6818461837BD4680BD1C1500200B
:1050F0003015002020150020141500202415002054
:105100002815002080B584B000AF78607B68FB6014
:105110007B68002B2CD008235B42FA681344FB60A9
:10512000FB68BB60BB685A68134B1B681340002BBD
:105130001ED0BB681B68002B1AD1BB685A680E4B87
:105140001B68DB431A40BB685A60FFF7D7F8BB689F
:105150005A680A4B1B681344084A1360B86800F089
:1051600073F8074B1B680133054A1360FFF7D4F847
:1051700000BF1037BD4680BD30150020201500202F
:105180002C15002080B485B000AF4FF48053BB6075
:10519000274BFB60FB6803F00703002B0CD0FB6878
:1051A0000733FB60FB6823F00703FB60BA68FB680A
:1051B000D31A1F4A1344BB60FB687B601D4A7B689F
:1051C00013601C4B00225A607B68BA681344FB6072
:1051D0000822FB689B1AFB60FB6823F00703FB6057
:1051E000FB68154A1360144B1B6800225A60124B6F
:1051F0001B6800221A607B683B603B68FA68D21A21
:105200003B685A600C4B1A683B681A603B685B68E5
:105210000A4A13603B685B68094A1360094B4FF008
:1052200000421A6000BF1437BD4680BC704700BF03
:1052300014050020141500201C1500202415002042
:10524000201500203015002080B485B000AF7860B4
:10525000274BFB6002E0FB681B68FB60FB681B6878
:105260007A689A42F7D8FB68BB60FB685B68BA68EB
:1052700013447A689A4208D1FB685A687B685B6875
:105280001A44FB685A60FB687B607B68BB607B6884
:105290005B68BA681A44FB681B689A4218D1FB68BD
:1052A0001A68144B1B689A420DD07B685A68FB68D9
:1052B0001B685B681A447B685A60FB681B681A6845
:1052C0007B681A6008E00B4B1A687B681A6003E081
:1052D000FB681A687B681A60FA687B689A4202D099
:1052E000FB687A681A6000BF1437BD4680BC7047FF
:1052F000141500201C1500200EB46FF0004110B5ED
:1053000000249DB01FAB02900690079104910948BC
:10531000094953F8042B0591006802A901931B94D5
:1053200000F0A0F9029B1C701DB0BDE8104003B056
:10533000704700BF180000200802FFFF0346024428
:10534000934200D1704703F8011BF9E7014B18683D
:10535000704700BF1800002070B500260C4D0D4CA2
:10536000641BA410A64209D100F076FC00260A4D69
:105370000A4C641BA410A64205D170BD55F8043B2D
:1053800098470136EEE755F8043B98470136F2E7B7
:10539000885E0008885E0008885E00088C5E000851
:1053A000704770470A44914200F1FF3300D17047C3
:1053B00010B511F8014B914203F8014FF9D110BD1E
:1053C00038B50546002940D051F8043C0C1F002B8D
:1053D000B8BFE41800F0DEF81C4A136833B9636004
:1053E00014602846BDE8384000F0DAB8A34208D976
:1053F000206821188B4201BF19685B680918216079
:10540000EDE71A465B680BB1A342FAD91168501850
:10541000A0420BD120680144501883421160E0D1B2
:1054200018685B68084410605360DAE702D90C23FF
:105430002B60D6E7206821188B4201BF19685B6892
:105440000918216063605460CBE738BD78160020EE
:1054500070B50F4E0C463168054611B900F0A8FB37
:1054600030602146284600F0A3FB431C03D14FF0D7
:10547000FF34204670BDC41C24F00304A042F8D0C1
:10548000211A284600F094FB0130F2D1EFE700BF6B
:10549000741600202DE9F843CD1C25F003050835CE
:1054A0000C2D38BF0C25002D064601DBA94204D97E
:1054B0000C2333600020BDE8F883DFF8D48000F0CF
:1054C00069F8D8F800301C4644BB29463046FFF73F
:1054D000BFFF431C044658D1D8F800402746002F90
:1054E00043D1002C4BD023683946304604EB0309E6
:1054F00000F05EFB814542D1216830466D1A294695
:10550000FFF7A6FF01303AD023682B442360D8F878
:1055100000305A6862BBC8F800700FE02268521B66
:1055200020D40B2A17D96119A342256018BF5960EE
:10553000636808BFC8F8001062514B60304600F045
:105540002FF804F10B00231D20F00700C21A1CBF26
:105550001B1AA350AFE76268A3420CBFC8F8002033
:105560005A60EBE723466468AEE73C467F68B6E7DF
:105570001A465B68A342FBD100235360DEE70C238D
:105580003046336000F00CF894E70560D6E700BFC2
:10559000781600200148FFF703BF00BF70160020F7
:1055A0000148FFF7FEBE00BF701600202DE9F0474E
:1055B0001F468E688246BE420C4690460B682DD828
:1055C000B1F90C2012F4906F26D06569096905EBDA
:1055D0004505A3EB010905EBD5757B1C4B446D100C
:1055E0009D4238BF1D46530527D52946FFF752FF78
:1055F000064660B34A462169FFF7D4FEA38923F427
:10560000906343F08003A38126614E4426603E46AA
:105610006561A5EB0905A560BE4200D93E4632464C
:105620004146206800F0AAFA0020A3689B1BA360F3
:10563000236833442360BDE8F0872A4600F0D6FA99
:1056400006460028E0D150462169FFF7B9FE0C2339
:10565000CAF80030A3894FF0FF3043F04003A38124
:10566000E9E700002DE9F04F98468B8907461B06B5
:105670000D4614469DB010D50B6973B94021FFF754
:1056800009FF2860286130B90C233B604FF0FF30E0
:105690001DB0BDE8F08F40236B61002309932023E8
:1056A0008DF8293030234FF00109CDF80C80DFF858
:1056B00098818DF82A3023469A4613F8012B0AB1B7
:1056C000252AF9D1BAEB040B0BD05B4622462946BA
:1056D0003846FFF76BFF013000F0A780099A5A4463
:1056E00009929AF80030002B00F09F8000234FF0C1
:1056F000FF32CDE905230AF1010A049307938DF8DF
:1057000053301A935446052214F8011B4E4800F0FA
:105710005FFA049AD8B9D00644BF20238DF85330DD
:10572000110744BF2B238DF853309AF800302A2BF1
:1057300015D0544600204FF00A0C079A214611F864
:10574000013B303B092B4BD9B0B1079214E0A0EBE1
:10575000080309FA03F31343A2460493D2E7039B19
:10576000191D1B680391002BBBBF5B4242F0020274
:1057700007930793B8BF049223782E2B0AD163783E
:105780002A2B32D1039B02341A1D1B68039243EA71
:10579000E3730593DFF8B4A003225046217800F0AC
:1057A00017FA38B14022049BA0EB0A008240134351
:1057B0000134049314F8011B062225488DF82810A3
:1057C00000F006FA002836D0224B1BBB039B0733A0
:1057D00023F0070308330393099B334409936AE7D3
:1057E0000C4601200CFB0232A8E700234FF00A0C04
:1057F000194601340593204610F8012B303A092A46
:1058000003D9002BC6D00591C4E7044601230CFB45
:105810000121F0E703AB00932A4638460E4B04A95A
:10582000AFF30080421C0646D6D1AB895B063FF53C
:105830002DAF09982CE703AB00932A463846064B58
:1058400004A900F07DF8EDE74A5E0008505E00080C
:10585000545E000800000000AD5500082DE9F04737
:10586000164698468A680B6907469342B8BF1346A6
:10587000336091F843200C46DDF820900AB10133E3
:1058800033602368990642BF33680233336025686A
:1058900015F0060506D104F1190AE36832689B1A6F
:1058A000AB422BDC94F843302268003B18BF012345
:1058B000920630D44146384604F14302C8470130CD
:1058C00023D02368226903F00603042B14BF0025AC
:1058D00033684FF0000608BFE56804F11A0408BFFA
:1058E000ED1A54F8123C08BF25EAE5759342C4BF8F
:1058F0009B1AED18B5421AD1002008E00123524648
:1059000041463846C847013003D14FF0FF30BDE86B
:10591000F0870135C1E73020E11881F843005A1CB7
:1059200094F845102244023382F84310C2E7012361
:10593000224641463846C8470130E6D00136D9E70D
:105940002DE9FF470F7E9146782F80460C469A46F8
:105950000C9E01F1430207D8622F0AD8002F00F0F5
:10596000D180582F00F0B88004F1420684F84270CC
:105970003AE0A7F16303152BF6D801A151F823F003
:10598000D9590008ED5900086959000869590008FB
:105990006959000869590008ED590008695900085B
:1059A000695900086959000869590008EB5A00084C
:1059B000175A0008A55A00086959000869590008D3
:1059C0000D5B000869590008175A0008695900085A
:1059D00069590008AD5A000833681A1D1B68326007
:1059E00004F1420684F8423001239CE033682068C9
:1059F000191D3160060601D51D6803E04506FBD57B
:105A0000B3F90050002D03DA2D236D4284F84330A2
:105A10000A23584811E021683368080653F8045BEC
:105A200002D4490648BFADB26F2F336014BF0A23BA
:105A300008235048002184F843106668002EA660B1
:105A400005DB21682E4321F0040121604BD016466E
:105A5000B5FBF3F103FB1157C75D06F8017D2F4637
:105A6000BB420D46F4D9082B0BD12368DF0708D5BC
:105A7000236961689942DEBF302306F8013C06F1D4
:105A8000FF36921B22614B4621464046CDF800A0CE
:105A900003AAFFF7E3FE01304AD14FF0FF3004B014
:105AA000BDE8F087236843F020032360782732485D
:105AB00084F84570236831681F0651F8045B02D4EE
:105AC0005F0648BFADB23160D90744BF43F0200341
:105AD00023601DB11023ADE72648E9E7236823F0D2
